:020000040800F2
:100000000000032021060008C9240008CB240008B2
:10001000CD240008CF240008D124000800000000EF
:10002000000000000000000000000000D18A00086D
:10003000D324000800000000618B0008D183000871
:1000400071060008710600087106000871060008B4
:1000500071060008710600087106000871060008A4
:100060007106000871060008710600087106000894
:100070007106000871060008710600087106000884
:100080007106000871060008710600087106000874
:100090007106000871060008710600087106000864
:1000A0007106000871060008710600087106000854
:1000B0007106000871060008710600087106000844
:1000C0007106000871060008710600087106000834
:1000D0007106000871060008710600087106000824
:1000E0007106000871060008710600087106000814
:1000F0007106000871060008710600087106000804
:1001000071060008710600087106000871060008F3
:100110007106000871060008D52400087106000861
:1001200071060008710600087106000871060008D3
:1001300071060008710600087106000871060008C3
:1001400071060008710600087106000871060008B3
:1001500071060008710600087106000871060008A3
:100160007106000871060008710600087106000893
:100170007106000871060008710600080000000002
:100180007106000871060008710600087106000873
:100190007106000871060008710600087106000863
:0C01A000E124000871060008ED240008AE
:1001B00010B5054C237833B9044B13B10448AFF3A1
:1001C00000800123237010BD800300200000000088
:1001D0008C6B020808B5034B1BB103490348AFF30E
:1001E000008008BD00000000840300208C6B020822
:1001F00001F0FF01102A2BDB10F0070F08D010F8D8
:10020000013B013A8B422DD010F0070F42B3F6D1DB
:10021000F0B441EA012141EA014122F007047FF0F4
:1002200000070023F0E80256083C85EA010586EA4B
:10023000010685FA47F5A3FA87F586FA47F6A5FA87
:1002400087F68EB9EED1F0BC01F0FF0102F0070293
:1002500032B110F8013B013A83EA010313B1F8D13E
:100260000020704701387047002D06BF354603381F
:10027000073815F0010F07D1013015F4807F02BF58
:10028000013015F4C03F0130F0BC0138704700BFA9
:100290007BB972B90029BEBF00204FF0004106E0D3
:1002A00008BF00281CBF6FF000414FF0FF3000F086
:1002B000B5B9ADF1080C6DE904CE002909DB002BBE
:1002C0001ADB00F04DF8DDF804E0DDE9022304B0AC
:1002D0007047404261EB4101002B1BDB00F040F80E
:1002E000DDF804E0DDE9022304B0404261EB4101A6
:1002F000524263EB43037047524263EB430300F007
:100300002FF8DDF804E0DDE9022304B0404261EBA0
:1003100041017047524263EB430300F021F8DDF8DE
:1003200004E0DDE9022304B0524263EB430370476B
:1003300053B94AB9002908BF00281CBF4FF0FF314C
:100340004FF0FF3000F06AB9ADF1080C6DE904CE52
:1003500000F006F8DDF804E0DDE9022304B07047A0
:100360002DE9F047089D0C46002B4ED194468C4554
:100370008646B2FA82F262D94AB1C2F120039140B4
:1003800020FA03F30CFA02FC194300FA02FE4FEACA
:100390001C471FFA8CF6B1FBF7F44FEA1E4307FB2C
:1003A000141143EA014304FB06F199420AD91CEBFC
:1003B000030304F1FF3080F01281994240F20F8173
:1003C000023C6344591A1FFA8EF3B1FBF7F007FBA6
:1003D000101143EA014300FB06F69E420AD91CEBCA
:1003E000030300F1FF3180F0FC809E4240F2F9806F
:1003F000634402389B1B40EA044000211DB1D340F6
:100400000022C5E90032BDE8F0878B4205D90DB165
:10041000C5E9000100210846F5E7B3FA83F1002998
:1004200046D1A34202D39042C0F0F080861A64EB1A
:1004300003030120002DE6D0C5E90063E3E7002AAD
:1004400040F09080A1EB0C044FEA1C481FFA8CF797
:100450000121B4FBF8F64FEA1E4308FB164443EAB9
:10046000044307FB06F0984208D91CEB030306F18E
:10047000FF3402D2984200F2CD8026461C1A1FFAA1
:100480008EF3B4FBF8F008FB104443EA044300FB8E
:1004900007F79F4208D91CEB030300F1FF3402D297
:1004A0009F4200F2B0802046DB1B40EA0640A5E7F1
:1004B000C1F120068B4022FA06F71F4320FA06FC02
:1004C00004FA01F343EA0C03F44000FA01F8380C93
:1004D0004FEA1349B4FBF0FE1FFA87FC00FB1E44F1
:1004E00049EA04440EFB0CF9A14502FA01F20AD9CB
:1004F0003C190EF1FF3A80F08480A14540F28180E2
:10050000AEF1020E3C44A4EB09041FFA83F9B4FBDC
:10051000F0F300FB134449EA044403FB0CFCA4453C
:1005200007D93C1903F1FF3067D2A44565D9023BD6
:100530003C4443EA0E40A0FB0293A4EB0C049C4213
:10054000CE469C4651D34ED055B1B8EB0E0364EB6A
:100550000C0404FA06F6CB401E43CC40C5E9006407
:10056000002150E7C2F1200320FA03F10CFA02FC4B
:1005700024FA03F394400C434FEA1C4800FA02FEAD
:100580001FFA8CF7B3FBF8F008FB1031230C43EA99
:10059000014300FB07F1994208D91CEB030300F16A
:1005A000FF362CD299422AD9023863445B1AA4B28E
:1005B000B3FBF8F108FB113344EA034401FB07F3F2
:1005C000A34208D91CEB040401F1FF3613D2A34265
:1005D00011D902396444E41A41EA004139E704467A
:1005E000F0E6084606E7C845AED2B9EB020E63EB6B
:1005F000070C0138A8E73146EDE7034699E7304696
:10060000D4E7D6467FE7634402384DE706462346E3
:1006100008460FE7023E634430E700BF704700BF63
:10062000DFF834D0002103E00C4B5B584350043119
:100630000B480C4B42189A42F6D30B4A02E00023B7
:1006400042F8043B094B9A42F9D305F01BF925F017
:1006500085FB01F05BF9704700000320208910083A
:10066000000000206401002080030020E4750120C8
:10067000FEE7704708B500F0ADFDBDE8084000F0AA
:100680002FBD00F0A9BD704710B50421044624F029
:10069000F9F8204610BD000038B50C4B0C4C188002
:1006A0000C4B822019806368984740F611039842EA
:1006B0000AD1094D23682C60822098472B6882203C
:1006C000DB689847002038BD0120FCE7A603002026
:1006D0004C000020A4030020A80300204FF4A071C8
:1006E000F020FFF7D9BF0000F7B5334D2B68044663
:1006F0001B6982209847208000284AD02B680DF182
:1007000006025B6901A982209847BDF8063040F6D1
:10071000746293423FD9ADF80620BDF80630D21A74
:1007200092B20A2A3DD90B23B2FBF3F2234B1B886A
:100730009A4201D9013B9AB2BDF8043040F6B83173
:100740008B4230D8C3F571630E339BB20F21B3FBDC
:10075000F1F31B4909888B4201D901398BB2194E3B
:10076000194D30682F68834281B28CBF591AC91A5B
:10077000B8B2BA428CBF101A801A89B280B2014452
:100780000529C8BF33603368C8BF2A6063802B68FF
:10079000A38003B0F0BDB32B9CBFB423ADF80630EB
:1007A000BBE70022C8E7C3F56D6308339BB20E2B8D
:1007B000CCD80023D3E700BFA8030020A403002067
:1007C000A6030020A00300209C03002037B5684644
:1007D0000D461446FFF788FFBDF8000030B1BDF8A4
:1007E00002302B60BDF804302360012003B030BD1F
:1007F000032821D8DFE800F0020B12190F4B1A680A
:10080000B2FA82F2520904210D4805F0D1BA0B4B1D
:100810005A68B2FA82F252090821F5E7074B9A6842
:10082000B2FA82F252091021EEE7044BDA68B2FA0A
:1008300082F252092021E7E7704700BFAC03002095
:1008400000100240032821D8DFE800F0020B121943
:100850000F4B1A68003A18BF012204210D4805F019
:10086000A7BA0B4B5A68003A18BF01220821F5E7D6
:10087000074B9A68003A18BF01221021EEE7044B9B
:10088000DA68003A18BF01222021E7E7704700BF6D
:10089000AC0300200010024003280DD8DFE800F070
:1008A0000206080A0421054805F087BA0821FAE77C
:1008B0001021F8E72021F6E7704700BF0010024042
:1008C00008B5032811D8DFE800F0020A0C0E042155
:1008D000074805F067FA431E5842584108BD0821F1
:1008E000F6E71021F4E72021F2E70020F3E700BF4C
:1008F0000010024070B5084D00240126E0B2FFF759
:10090000DFFF18B12B68012B18BF2E600134052CB6
:1009100005F10405F2D170BDAC030020012380F87D
:10092000781080F87930704700207047034B41649D
:10093000003918BF01211970704700BFA36801205A
:1009400000207047836B0BB10846184770474FF67D
:10095000FF707047406803689B691847704770478D
:100960007047000010B5044600F044FD23680349B9
:10097000D3F88C302046BDE810401847000000D066
:1009800008B503680446D3F88030984723682046AA
:100990009B6F984700F0ECF8236820461B6F984740
:1009A000292001F075FA00F0E3F8236820461B6F58
:1009B0009847F8E710B504460AF066FE236820461B
:1009C000D3F8AC30BDE81040184700F0F5BC00F09B
:1009D000F9BC00F02DBD00F0CBBC00F03DBD00F037
:1009E00045BD00F0CFBC0AF0BBB810B57C21044671
:1009F00023F048FF204610BD10B590F8341090F851
:100A000078400C4B8C421A7809D03AB90A4A0B4903
:100A10001488088810800C8001221A7010BD002AEA
:100A2000FCD0054A05491488088810800C800022F3
:100A3000F3E700BF9C680120986801209A680120B4
:100A400070B50D46194635B9094B0A4A0A4840F2B5
:100A5000D22124F09FFEC0E90F52084B003A18BF84
:100A600001221A700368BDE87040D3F88C30184733
:100A7000FC6B0208346C0208826C0208A268012038
:100A800008B5094B1B888B4203D8084B1B8893423F
:100A900005D9074B074A08489E2124F07BFE074BE7
:100AA0001980074B1A8008BD986801209A680120B8
:100AB000C76C02082A6D0208826C02089E68012039
:100AC000A0680120034690F87A0018B158680368BE
:100AD0001B68184770470000012108B5002208462E
:100AE00007F003FD0A4B186028B90A4B0A4A28216F
:100AF0000A4824F04FFE00220421012007F09DFD4A
:100B0000074B186018B9074B034A2C21F0E708BDC2
:100B1000C0030020486E0208916E0208C06E0208F1
:100B2000BC0300200D6F0208024B4FF0FF31186824
:100B300007F025BDC0030020014B186807F04BBD2E
:100B4000C0030020024B0021186807F018BD00BF49
:100B5000C0030020FFF7F0BF0348044900680023EA
:100B60001A4607F0A5BD00BFBC030020040000200A
:100B700013B5084C00231A4601A9206807F0C9FDE7
:100B800020684FF0FF33002201A907F0C2FD02B038
:100B900010BD00BFBC03002003685B6C1847012038
:100BA000704703689B6A1847FEE740F2EF307047D2
:100BB000054B0360054B4FF08062C3F88820BFF3FC
:100BC0004F8FBFF36F8F7047AC70020800E100E0F9
:100BD00010B504464FF45A61FFF7EAFF204623F0B0
:100BE00051FE204610BD000082B0002301930E4B41
:100BF0001A6B42F400021A631A6B02F400020192AB
:100C0000019A1A6942F400021A611A6922F4000278
:100C10001A61064B064A1A61064A5A61064B4FF0A2
:100C200080629A6002B07047003802404C58002041
:100C3000890E0008A90B000800E100E008B50A28A9
:100C400009D8DFE800F006100E0808080810101098
:100C50001000022008BD054B054A0648902124F0EB
:100C600099FD0020F6E70120F4E700BF4F6F02086E
:100C70006A6F0208B56F020838B50C46887FFFF727
:100C8000DDFFA58AE28A164B2169586342EA0542D4
:100C90005A64628BD963521B1A642568082D0ED1E1
:100CA0009A611A615862207F0E4A42EA0062DA6154
:100CB000E2681A620C4A5961D9601A6038BD002294
:100CC000D8611A61E1680A0A480902F4784200F41E
:100CD000FC600243C1F3C4010A439A63034AECE790
:100CE00000B00240090001000123020001230300BB
:100CF00008B50B280BD8DFE800F00612100A0A0A24
:100D00000A0808080808022008BD0520FCE7054B72
:100D1000054A06486F2124F03DFD0020F4E701203C
:100D2000F2E700BF4F6F020800700208B56F0208BB
:100D30002DE9F04191F81D800C464046FFF7D8FFA1
:100D4000A77F05463846FFF7D3FF06463846FFF72C
:100D500075FFA18A628B444B521A1A649A61228BE6
:100D6000521A1A61E28A586342EA01425A642169BE
:100D70006268D963DA602068802828D0227F0FD883
:100D8000202867D0402865D004281AD0364B45EA81
:100D9000026545F40035B845DD6161D0334A44E071
:100DA000B0F5807F04D0B0F5007FEFD1304800E08F
:100DB000304840EA0262DA61E2681A625E625961B2
:100DC00032E045EA026242F40032DA61F6E7A068F6
:100DD000021DDA62227F45EA026545F40035DD61D5
:100DE0005E625961017841B1012921D0224B234A29
:100DF00023484FF48D7124F0CDFCDA69418822F448
:100E00007F42013922F0100242EA0122DA61012117
:100E1000154BDA6942F02002DA61DA699206FCD4F5
:100E200010229A600029B9D0164A1A60BDE8F081F4
:100E3000B2F1FF01DA69408822F47F4200F1FF300D
:100E400022F0100242EA002242F0100218BF0121F3
:100E5000DA61DDE745EA0262034B42F40032B4E7AF
:100E600042F20132E1E700BF00B00240012301007D
:100E7000090002000A0002004A70020864700208B9
:100E8000B56F020801230200024B1B685868036813
:100E90005B691847A468012070B5044625460A4BD3
:100EA0000C30002660602672667245F8203B602296
:100EB00029460AF041FD04F55A63EE6024359D424F
:100EC000FBD1204670BD00BFAC700208034B1A680E
:100ED000D207FCD423229A60704700BF00B00240C2
:100EE0007047000030B50F4C2568ED07FCD4232572
:100EF0000904A56041F001010225FF2B65636164CF
:100F0000E0630AD00849656241EA0363E361074B85
:100F100022626061E060236030BDE561039BA363F2
:100F2000034BF8E700B00240090001000100020095
:100F30000100030030B50E4C2568ED07FCD42325D5
:100F40001204A56042F001020225FF2B6563626472
:100F5000E063E16008D01B0643F00213E361054B38
:100F600065626061236030BD034BE3610123F9E7F3
:100F700000B0024001000200020002FF30B50B4C3D
:100F80002568ED07FCD4232512041B06A56043F455
:100F90000033022542F0010265636264E063E160B0
:100FA000E361034B65626061236030BD00B00240C5
:100FB00001000200012070470C2070470C2303FB46
:100FC0000100083070470C2303FB01000830704714
:100FD0000120704744F2B010704744F2B01303FB95
:100FE00001000830704744F2B01303FB01000830E1
:100FF0007047012070471020704700EB0110083047
:10100000704700EB011008307047084601F0CCBB78
:1010100010B5034B0360044609F0F7FA204610BDF3
:101020006471020810B50446FFF7F2FF2046142150
:1010300023F028FC204610BD10B5034B0360044686
:1010400009F0E3FA204610BD3071020810B50446DD
:10105000FFF7F2FF204644F2B81123F013FC2046BC
:1010600010BD000010B5034B0360044609F0CDFA33
:10107000204610BDFC70020810B50446FFF7F2FFD1
:101080002046182123F0FEFB204610BD10B5094B69
:101090000360044600F583406430FFF7B9FF04F1B4
:1010A0002C00FFF7C9FF04F11400FFF7DBFF204617
:1010B00010BD00BF9871020808B50248FFF7E6FFAF
:1010C00008BD00BF9412002010B50446FFF7DEFFF4
:1010D000204644F2583123F0D5FB204610BD0000D5
:1010E0002DE9F34101F07CFA054601F07DFA002478
:1010F0000146234628462246009414F067FB274BFE
:10110000274A1A60204603F081F8264D264B274ACD
:1011100027489A6014F0C2FA2B68BFF35B8FDB0795
:1011200036D4284623F0B0FB90B3224C224F234BF9
:10113000236007F1180604F1140004F12C08606024
:10114000C4F80880E760266109F060FA1C4B63610F
:10115000404609F05BFA1B4BE362384609F056FA49
:1011600004F5804303F5FC70174AC3F8E42103F04B
:10117000D5F8224607F11401304603F0C5F8304691
:1011800001F012FB114824F023FB284623F088FBD2
:101190000F4802B0BDE8F041FFF7E4BB0869012049
:1011A000400400209012002060040020440400202D
:1011B0000800002094120020785400209871020842
:1011C000FC7002083071020864710208B91000084E
:1011D000C4030020704700000148FFF7D1BB00BFE7
:1011E000C403002070B5244E244C254D254B2360AC
:1011F0003046FFF751FE284619F0EEFB224811F069
:1012000033FF224B2248DC6000224FF48071C3E997
:10121000121220491A86C3E91A121F4999671F49F9
:1012200083F858200B60F02101801D485A66018028
:101230001C4883F870204FF4A071C3E90422C3E96D
:101240000622C3E90822C3E90A22C3E90E22C3E940
:101250001022C3E91422C3E917225A67C3E90165C2
:1012600001801148018011490A70012283F834205D
:101270000F4A1A6070BD00BFEC0400208C120020E1
:1012800060040020EC6B020844040020C40300202A
:10129000986801200100000100000101A4680120FC
:1012A0009E6801209A680120A06801209C680120A6
:1012B000786D02080148FFF77BBC00BFEC040020FA
:1012C0000020704781807047C1807047018170475E
:1012D000418170477047704770477047704710B43E
:1012E000C4880368121B84885B6D091B12B25DF809
:1012F000044B09B218474FF6FF7383814FF0FF3359
:1013000003621368C36110607047002070478B88C8
:10131000838001207047704780F82610704790F84E
:101320002600704710B50022B1F90840B1F90A1043
:10133000028042808480C18010BD002202804280F1
:101340008280C28070470177704780ED080A70473D
:1013500080F82410704780F82510704701207047EE
:10136000983070478C307047843070477047000069
:10137000034B902283F85A2383F85823704700BF09
:1013800000E100E0094A0A49D3680A48C3F30A03A6
:10139000013B9BB20B801169C1F30A010139018045
:1013A0001364536B43F001035363704700680140BB
:1013B000EE550020EC550020014BD3F8AC007047EF
:1013C00000680140024B0122C3F8AC105A6270471A
:1013D000006801407047704710B52C21044623F087
:1013E00051FA204610BD10B5BC21044623F04AFA3C
:1013F000204610BD70B5044609F007FC23685D6EF9
:1014000010F006FD01462046A8472368054AD3F898
:1014100088502046AC460023BDE87040A2F5163146
:10142000604700BF00B004D009F0D6BB09F0E0BBB4
:1014300009F09CBB09F0FDBC90F8252012B10368AF
:101440005B691847704790F825201AB190F824205E
:1014500002B1186070470000034B4FF080629A6041
:101460004FF080729A60704700E100E0084B4FF047
:101470008062C3F88820BFF34F8FBFF36F8F4FF0A8
:101480008072C3F88820BFF34F8FBFF36F8F704710
:1014900000E100E070B50023124E8380124B036020
:1014A000336893F8582005460AB1D86C00B998689B
:1014B0000368DB6A98473368B0FA80F4D86C640933
:1014C00030B10368DB6A9847002808BF44F0010484
:1014D0002CB9064B064A07482C2124F05BF9284614
:1014E00070BD00BFA4680120A8720208A4710208A0
:1014F000027202083B72020870B5244E3568BFF3D1
:101500005B8F15F001053FD1304623F0BDF900286F
:101510003AD01F4C1F4B256104F13400C4E900355B
:10152000C4E90255E584A562A58511F0FCFF04F12C
:1015300058000CF0CDFA184BA3652046174B40F825
:10154000843BFFF7A7FF164BC4F884302433C4F85C
:101550008C306423C4E928350023C4F8AC30C4F8C7
:10156000B030C4F8B430C4F8B8300E480E4BC4F8EC
:101570009050C4F89C50C4F8A850C4F8983024F097
:1015800027F9304623F08CF9014870BDF055002052
:10159000F4550020148A0208C87202084073020839
:1015A000C88902086D130008A889020810B5144CF8
:1015B000236823B3134B144A1B6C11888B4213D13D
:1015C000124B198805F006FA226892F86A30013346
:1015D00082F86A30FFF7C0FA20680AF055F8BDE8D3
:1015E00010400020FFF704B905F0F4F92068036803
:1015F0001B6A9847BDE810400020FFF723B910BDD3
:10160000A468012000680140EE550020EC55002040
:1016100007B5064BADF806001B68054801220DF121
:10162000060105F077FF03B05DF804FB0C00002015
:10163000F8560020F8B50668104CB4FBF2F21F46CD
:101640005308013AF2620546C2600C4669B97363F9
:101650002146284606F078FD384606F03AFF214636
:101660002846BDE8F84006F0AFBD042901D1B363B8
:10167000EEE708290CBFF3633364E9E740420F004B
:101680002DE9F74F06460F46019314464FF0000828
:101690004FF0030A4FF0050B019B984502D103B0B0
:1016A000BDE8F08FD4E90025002AA36895FBFAF580
:1016B00093FBFBF94FEA450505DDABB292B2394623
:1016C0003046FFF7B7FF05EB090006F002FF394689
:1016D000304606F079FD08F101080C34DCE7000023
:1016E0002DE9F047114DDFF8488006460F4605F119
:1016F0001C094FF0030A58F8042B55F8044B94FBCF
:10170000FAF46400A3B292B239463046FFF792FF72
:10171000002CB8BF0334A01006F0DBFE394630467B
:1017200006F052FD4D45E6D1BDE8F0872074020871
:101730003C74020838B540F64D2204460D46642339
:10174000FFF778FF29462046BDE8384006F03CBD4B
:1017500073B53548354D042106F036FD00260421C9
:10176000284604F01FFB01280AD031484C238DF88D
:10177000073000680A2300220DF1070106F098FFE8
:101780000821284604F00EFB01280AD028485223DD
:101790008DF8073000680A2300220DF1070106F0DA
:1017A00087FF24484FF4804104F0FCFA01280AD056
:1017B0001F4858238DF8073000680A2300220DF1D6
:1017C000070106F075FF1C4C206806F0D2FF8DF86B
:1017D0000760C0B218B90A2006F07BFEBFE74FF0E1
:1017E000FF33206800220DF1070106F092FF9DF8FB
:1017F00007304F2B0AD1114A0B4826230421FFF74B
:101800003FFF206806F0B5FFC0B2E3E7452B04D1E7
:1018100005480421FFF78EFFF3E74C2BF1D1024876
:101820000421FFF75DFFECE7945800200018024008
:10183000B856002000000240B45600205874020838
:10184000054A536B43F040035363044A136843F063
:1018500004031360704700BF0038024000080650C0
:10186000024B5A68D207FCD59868704700080650AA
:1018700030B595B0102200210AA824F0C6F9142230
:10188000002103A824F0C1F900241E4B01941A6C16
:1018900042F080521A641B6C03F080530193019B49
:1018A000194B02941A6842F440421A601B6803F410
:1018B000404302930122029B4FF48033CDE9082379
:1018C00002254FF480030821CDE90E534FF4B47381
:1018D000CDE9101308A804231393129505F0D2F84C
:1018E00005F096F80F23CDE903354FF4A0504FF4DF
:1018F0008053CDE90603052103A8059405F09EFA5F
:1019000015B030BD00380240007000402DE980481D
:10191000A5B003F0C5FFFFF793FFFFF7A9FF14225F
:10192000002117A8002424F070F9C64B01941A6B0B
:10193000C548C64D42F010021A631A6B02F010023D
:101940000192019A02941A6B42F020021A631A6BF8
:1019500002F020020292029A03941A6B42F0800273
:101960001A631A6B02F080020392039A04941A6BB2
:1019700042F004021A631A6B02F004020492049A01
:1019800005941A6B42F001021A631A6B02F001020D
:101990000592059A06941A6B42F002021A631A6BBA
:1019A00002F002020692069A07941A6B42F0400275
:1019B0001A631A6B02F040020792079A08941A6B96
:1019C00042F008021A631B6B03F0080308932246D7
:1019D0003C21089B04F0ECF99D482246042104F0C8
:1019E000E7F922469B484FF4405104F0E1F9012603
:1019F0004FF003093C239448CDF8689017A90227BB
:101A00004FF00408CDE91736199404F0E7F8904830
:101A1000199417A9CDE917861A9704F0DFF84FF447
:101A200040538C4817A9CDE91736CDE9194704F082
:101A3000D5F80C238848199617A9CDE917344FF427
:101A4000804A04F0CBF817A984481996CDE917A469
:101A500004F0C4F88248834B036003F0B3FF824A6A
:101A6000824B2C622846C5E90023C5E904A4C5E9D8
:101A70000244C5E9064404F0A9FB1021284604F0FD
:101A8000EDFD2146284604F008FE79487949DFF843
:101A900008A284624FF48273C0E900134FF400750A
:101AA0001823C0E906530A23C362C0E90244C0E90F
:101AB0000444C0E9084405F0D1FC6F4A1797CAE90D
:101AC00000264FF0100B4022CAE904B24FF4C07256
:101AD000CAE906244FF400624FF40053CAE908240F
:101AE00017A907225046CAF828300825CDE91A2937
:101AF000CAE90248CDE91828CDE91C7705F092FB28
:101B00004FF6FF7210A95046CDE911560994109670
:101B1000139405F0A7FB304603F0EEFE4FF6FF727C
:101B200010A95046CDE91075CDE9126405F09AFB75
:101B30004FF6FF7210A95046CDE91095CDE91284F9
:101B400005F090FB4FF40C720992099A139210A9B8
:101B50004FF6FF725046CDE91085129605F082FBD4
:101B600040F26A51504605F09BFB3422214617A8EB
:101B700024F04BF8414D424B2C61C5E90034092358
:101B8000C5E905361D2340F20D1CC5E9073940F2B1
:101B90004313C5E909C340F2171E40F24713284614
:101BA000C5E90BE3C5E90244AC8685F8364004F08C
:101BB00019FEFF21F0224FF48069CDE91C140521A4
:101BC0004FF4A073CDE91824CDE91E91CDE9204250
:101BD00017A922462846CDE91A372A4D2293179491
:101BE000ADF88C408DF88E4004F0C7FE264B2B607C
:101BF0001B68DFF8A8A098472B68244DDB6898473E
:101C0000234B2846C5E90034C5E90274C5E90A47F3
:101C1000C5E90C4403F0E6FE3146284603F09AFF7E
:101C2000FEF728FD5A4621460CA823F0EEFF1C22A1
:101C3000214610A8174DCDE90A4423F0E6FF2022E3
:101C40002EE000BF0038024000100240F85700208C
:101C500000080240000C0240001802400000024050
:101C60008C58002000300240005C0040A08601003B
:101C7000F856002000500140400100A050570020BD
:101C800000680140B0560020140000204C5800208D
:101C900000B0024094580020C456002000000140CB
:101CA000214617A823F0B1FF4723C5E900A3284622
:101CB00040F2E733C5E90334C5E90544AC6006F0FA
:101CC00047F84FF480530CA928460C9306F030F9DE
:101CD000284606F069F80AA92846CDE90A4406F024
:101CE00075FA6023109322464FF4FA7310A9284620
:101CF0001193CDE91344CDE91544129406F0B6F8DA
:101D0000424610A9284606F0B1F84FF4005317A92F
:101D100028461C93CDE91744CDE919441B941E9421
:101D200006F092FA284600F0E7FAFEF7A2FC4146D8
:101D3000284606F009FA06F059FB0F4A3146484694
:101D400006F07BFC0D4B0E4A18603146484606F003
:101D500074FC0C4B0C4A186021460C4806F072FBD0
:101D60000B4B0C4A186021460B4806F06BFB0B4BE3
:101D7000186006F04DFBFEE7C0730208B85600205D
:101D8000A8730208B4560020FC730208511700081B
:101D9000C0560020D873020883060008BC560020F5
:101DA000704770477FB5094B8DF817201B68029369
:101DB0000DF117020123009201930A4601460448DF
:101DC00004F0ACFA07B05DF804FB00BF100000207F
:101DD000F85700207FB500238DF81730084B1B689B
:101DE00002930A4601230DF1170100910193014668
:101DF000044804F023FB9DF8170007B05DF804FBCE
:101E000010000020F85700201FB5084C24680092ED
:101E1000CDE901340A4601230146054804F00EFBD2
:101E2000003818BF012004B010BD00BF1000002012
:101E3000F857002003F060BD10B5064C0022204684
:101E4000042103F0B5FF20460122BDE81040042123
:101E500003F0AEBF0008024038B50B4D0446012226
:101E60000A484FF4005103F0A3FF00220421284642
:101E700003F09EFF2046FFF7CBFB28460122BDE87A
:101E80003840042103F094BF00080240000C0240D7
:101E900038B50B4D044600220A484FF4005103F0B8
:101EA00087FF00220421284603F082FF2046FFF727
:101EB000AFFB28460122BDE83840042103F078BF7B
:101EC00000080240000C0240F7B5144E144F0546BE
:101ED0000C4630460022042103F06AFF00224FF432
:101EE0000051384603F064FF2846FFF791FB0D4B85
:101EF0000D481B68224601A905F0B8FC38460122AE
:101F00004FF40051019C03F053FF3046012204219D
:101F100003F04EFF204603B0F0BD00BF00080240B2
:101F2000000C02400C000020F856002003F0E4BC36
:101F30000268034B9A4201D103F0CCBC704700BF4A
:101F4000001000407047000082B00E4B002200924B
:101F5000596C41F480415964596C01F480410091FD
:101F600000990192196C41F0805119641B6C03F0C7
:101F700080530193019B0F216FF0010002B003F029
:101F8000E1BC00BF003802400268094B9A4282B0AF
:101F90000BD100230193074B1A6B42F480521A6352
:101FA0001B6B03F480530193019B02B0704700BF89
:101FB000003002400038024007B50F4B02689A42D9
:101FC00016D10022A3F5F0430192196B41F40001F0
:101FD00019631B6B03F40003019305215A20019B35
:101FE00003F0B0FC5A2003B05DF804EB03F0DCBC56
:101FF00003B05DF804FB00BF00B002402DE9F043E0
:10200000044689B01422002103A823F0FEFD2268B3
:10201000204B9A423BD1204C204800250095236B51
:1020200043F004032363236B03F004030093009B3A
:102030000195236B43F001032363236B03F001033A
:102040000193019B4FF012094FF400734FF0010808
:102050000327042603A9CDE90339CDE905870796AF
:1020600003F0BCFD4FF480730D48079603A9CDE93A
:102070000339CDE9058703F0B1FD0295236C43F4E4
:1020800000032364236C03F400030293029B09B052
:10209000BDE8F083005C00400038024000080240C8
:1020A00000000240F0B599B004461422002107A8B0
:1020B00023F0ABFD30220DEB0200002123F0A5FD43
:1020C00022685E4B9A4240F0B78008230C93C023ED
:1020D0001093042312930CA84FF40033159304F0CB
:1020E00075FF08B1FFF72EFF554B564800240094AA
:1020F0005A6C42F080625A645A6C02F0806200921C
:10210000009A01941A6B42F020021A631A6B02F0D3
:1021100020020192019A02941A6B42F001021A63A2
:102120001A6B02F001020292029A03941A6B42F0B7
:1021300002021A631A6B02F002020392039A0494D9
:102140001A6B42F040021A631A6B02F040020492CA
:10215000049A05941A6B42F004021A631A6B02F097
:1021600004020592059A06941A6B42F008021A635B
:102170001B6B03F00803069302250E26069B0B96A5
:102180004FF4806307A9CDE90735CDE9094503F090
:1021900025FD41F658032C480B9607A9CDE90735D4
:1021A0000927CDE9094503F019FD032327480B97BB
:1021B00007A9CDE90735CDE9094503F00FFD4FF437
:1021C000706322480B9607A9CDE90735CDE909458B
:1021D00003F004FD4FF40C631D480B9607A9CDE9ED
:1021E0000735CDE9094503F0F9FCC02319480B96E2
:1021F00007A9CDE90735CDE9094503F0EFFC082330
:1022000015480B9607A9CDE90735CDE9094503F037
:10221000E5FC4FF4A0530E480B9707A9CDE907350D
:10222000CDE9094503F0DAFC58202246052103F0E8
:1022300089FB582003F0B8FB19B0F0BD00680140DD
:102240000038024000140240000002400004024036
:102250000018024000080240000C024010B504467D
:1022600088B01422002103A823F0CFFC2268144B6D
:102270009A4223D103F56843002101915A6C114819
:1022800042F480125A645A6C02F480120192019A4C
:1022900002911A6B42F020021A631B6B03F02003B9
:1022A0000293029B4FF4607202230321CDE90323C2
:1022B0000523CDE9061303A903F090FC08B010BD77
:1022C00000500140001402400268094B9A4282B05B
:1022D0000BD100230193074B5A6C42F001025A6460
:1022E0005B6C03F001030193019B02B0704700BFD8
:1022F000000001400038024010B5044686B01422A8
:10230000002101A823F081FC22680E4B9A4216D1CD
:10231000002300930C4B0D481A6B42F001021A6324
:102320001B6B03F001030093009B4FF40072022328
:10233000CDE9012301A90123059303F04FFC06B069
:1023400010BD00BF00000140003802400000024004
:102350002DE9F04186B0002303932B4B1C68002C21
:102360004FD14FF00108C3F80080284B00949A6BBE
:10237000274842EA08029A639B6B03EA080300932A
:10238000022703260C25009B01A94FF63F03CDE948
:102390000137CDE9046503F021FC1E48059501A92C
:1023A000CDE90187CDE9034603F018FC48F2331369
:1023B0001948059501A9CDE90137CDE9034603F098
:1023C0000DFC4FF683731548059501A9CDE901373A
:1023D000CDE9034603F002FC4CF203731048059567
:1023E00001A9CDE90137CDE9034603F0F7FB6023EE
:1023F0000C48059501A9CDE90137CDE9034603F065
:10240000EDFB06B0BDE8F081DC580020003802404A
:102410000014024000080240001802400010024070
:10242000000C02400004024070B588B00023029303
:10243000204B1A6C42F010021A641B6C03F010035C
:102440000293054601A903A8029B04F0A1FD069B87
:102450004BBB04F08DFD184E184B336040F2E73350
:10246000F360174BB0FBF3F3013B7360304600237E
:102470003361B360B36105F06BFC044680B930464C
:1024800005F026FB044658B9362003F08DFA0F2DCF
:102490000DD822462946362003F054FA094B1D6018
:1024A000204608B070BD04F063FD4000D3E701246E
:1024B000F6E700BF00380240E0580020001000405E
:1024C00040420F007C0000207047FEE7FEE7FEE779
:1024D000FEE77047014805F03ABB00BFE058002016
:1024E000014804F0EDB900BF50570020014803F047
:1024F000A7BA00BF4C5800200120704708B523F050
:1025000027FC162303604FF0FF3008BD08B523F009
:102510001FFC16230360FEE770B50D4614460E46F9
:10252000731B9C4201DC204670BDAFF3008006F8AF
:10253000010BF5E770B50D4614460E46731B9C4221
:1025400001DC204670BD16F8010BAFF30080F5E703
:102550004FF0FF3070474FF400534B60002070473E
:1025600001207047002070470A4A116808B50346E9
:1025700009B9094911601068694603448B4206D9BC
:1025800023F0E6FB0C2303604FF0FF3008BD13601F
:10259000FCE700BF28590020E8750120704710B5FE
:1025A0000421044622F06EF9204610BD08B5032927
:1025B00013D8DFE801F002060A0E01F073FE00688E
:1025C00008BD01F06FFE4068FAE701F06BFE80681D
:1025D000F6E701F067FEC068F2E70020F0E70000D0
:1025E00000487047347602080820704713B500246D
:1025F00051B1036801948DF8034001AA9C680DF164
:102600000303A04702B010BD0846FBE7C08970472E
:10261000008A7047C088704780887047807A00F0D1
:102620007F007047807AC009704700207047000023
:102630009FED010A704700BF00000000704710B511
:102640000821044622F01EF9204610BD704770474D
:1026500000F598730868496803C37047704770476E
:102660004160704770470000064BC0F84C310023B2
:10267000C0F8503100F5A273C0F84801C0F84031ED
:10268000704700BF112C0008012303727047704788
:10269000704710B4C26841685410034601EB6200F1
:1026A000D20748BF0A599B685DF8044B48BFD3580E
:1026B00018470346406830B19A681AB9D86800F0E4
:1026C000010070470120704710B50C21044622F02C
:1026D000D9F8204610BD10B51021044622F0D2F8DA
:1026E000204610BD10B54FF4AE71044622F0CAF872
:1026F000204610BD10B50FF08BFB0368BDE81040FD
:10270000DB6B184710B50446D0F8400158B1036898
:10271000DB68984738B1D4F8400103689B68984754
:102720000023C4F8403110BD044B1B6893F85820B7
:102730000AB1D86C00B99868704700BFA46801203E
:10274000F8B5174604460E460FF024FC124B1C60E9
:10275000124B2360124B0025C4E95135114BC4E9DB
:1027600053551868036801219B68C4E94F55C4E9B3
:1027700055769847284601F049FDFFF7D5FF19F037
:102780007EFFFFF7D1FF19F0F5FFFFF7CDFF19F03E
:10279000FDFF2046F8BD00BFF8680120687C0208F4
:1027A000507C0208A4680120064BC0F84C3100237D
:1027B000C0F8503100F5A273C0F84801C0F84031AC
:1027C000704700BF112C0008064BC0F84C310023A5
:1027D000C0F8503100F5A273C0F84801C0F840318C
:1027E000704700BFC52A0008064BC0F84C310023D3
:1027F000C0F8503100F5A273C0F84801C0F840316C
:10280000704700BF79290008064BC0F84C310023FF
:10281000C0F8503100F5A273C0F84801C0F840314B
:10282000704700BF3128000803685B6A1847000042
:102830002DE9F14FD0E9556A0746B06803681B6A75
:102840009847B0F5E67F05D2434B444AA32144485C
:1028500022F0A0FF706803681B6A98470F2803D80E
:10286000404B3E4AA421F2E7F06803681B6A984790
:102870000B2803D83C4B394AA521E8E70FF0C8FAEA
:10288000DFF8EC9004300FF0E8FAD9F8000010B14E
:102890000368DB689847D9F8000010B103681B682B
:1028A0009847DFF8D080D8F8000010B103685B6962
:1028B0009847D7F83C0110B103685B689847D8F88F
:1028C000000010B103681B689847D7F83C0110B1AD
:1028D00003689B689847F0680021FFF7A5FF4FF059
:1028E000000B224BC0F804B0044680F808B0036027
:1028F000B068036859465B6A9847054602F0E6FCF3
:102900007068036859465B6A98472946064602F094
:10291000BBFC331DC7F83C61C9F80040C8F8005043
:10292000CAF800302B68C6F808A02846DB68EE63BA
:102930009847336830461B6898472146284611F06F
:10294000B7FB236820461B69984723685B692046CC
:1029500001B0BDE8F04F1847E4760208727702082C
:10296000447802088B7802082E790208BC7C0208A1
:10297000EC680120E86801202DE9F14FD0E9556AA3
:102980000746B06803681B6A984741F2D70398422C
:1029900005D8444B444AA321444822F0FBFE70680A
:1029A00003681B6A98470F2803D8414B3E4AA4216D
:1029B000F2E7F06803681B6A98470B2803D83D4B81
:1029C000394AA521E8E70FF023FADFF8F090043048
:1029D0000FF043FAD9F8000010B10368DB6898479C
:1029E000D9F8000010B103681B689847DFF8D08061
:1029F000D8F8000010B103685B699847D7F83C012C
:102A000010B103685B689847D8F8000010B10368FC
:102A10001B689847D7F83C0110B103689B6898473A
:102A2000F0680021FFF700FF4FF0000B224BC0F8C9
:102A300004B0044680F808B00360B06803685946E3
:102A40005B6A9847054602F0FFFB706803685946C9
:102A50005B6A98472946064602F0D4FB331DC7F847
:102A60003C61C9F80040C8F80050CAF800302B6833
:102A7000C6F808A02846DB68EE63984733683046FE
:102A80001B6898472146284611F012FB2368204610
:102A90001B69984723685B69204601B0BDE8F04F89
:102AA000184700BFE4760208D1790208447802088A
:102AB0008B7802082E790208BC7C0208EC680120A1
:102AC000E86801202DE9F14FD0E9556A0746B06862
:102AD00003681B6A984744F2AF13984205D8444BE9
:102AE000444AA321444822F055FE706803681B6ADB
:102AF00098470F2803D8414B3E4AA421F2E7F068DB
:102B000003681B6A98470B2803D83D4B394AA52117
:102B1000E8E70FF07DF9DFF8F09004300FF09DF951
:102B2000D9F8000010B10368DB689847D9F80000B5
:102B300010B103681B689847DFF8D080D8F8000010
:102B400010B103685B699847D7F83C0110B103687E
:102B50005B689847D8F8000010B103681B68984775
:102B6000D7F83C0110B103689B689847F0680021D2
:102B7000FFF75AFE4FF0000B224BC0F804B004469A
:102B800080F808B00360B068036859465B6A9847EC
:102B9000054601F04DFC7068036859465B6A98472A
:102BA0002946064601F008FC331DC7F83C61C9F808
:102BB0000040C8F80050CAF800302B68C6F808A0DA
:102BC0002846DB68EE639847336830461B689847B1
:102BD0002146284611F06CFA236820461B69984765
:102BE00023685B69204601B0BDE8F04F184700BF7D
:102BF000E4760208A37A0208447802088B78020877
:102C00002E790208BC7C0208EC680120E8680120EB
:102C10002DE9F14FD0E9556A0746B06803681B6A91
:102C20009847B0F59C7F05D2434B444AA3214448C2
:102C300022F0B0FD706803681B6A98470F2803D81C
:102C4000404B3E4AA421F2E7F06803681B6A9847AC
:102C50000B2803D83C4B394AA521E8E70FF0D8F8F8
:102C6000DFF8EC9004300FF0F8F8D9F8000010B15C
:102C70000368DB689847D9F8000010B103681B6847
:102C80009847DFF8D080D8F8000010B103685B697E
:102C90009847D7F83C0110B103685B689847D8F8AB
:102CA000000010B103681B689847D7F83C0110B1C9
:102CB00003689B689847F0680021FFF7B5FD4FF067
:102CC000000B224BC0F804B0044680F808B0036043
:102CD000B068036859465B6A9847054601F052FBA5
:102CE0007068036859465B6A98472946064601F0B2
:102CF00027FB331DC7F83C61C9F80040C8F80050F5
:102D0000CAF800302B68C6F808A02846DB68EE63D6
:102D10009847336830461B6898472146284611F08B
:102D2000C7F9236820461B69984723685B692046DA
:102D300001B0BDE8F04F1847E4760208757B020841
:102D4000447802088B7802082E790208BC7C0208BD
:102D5000EC680120E8680120406A7047806A70478B
:102D600070478B88C0690A68DB0A50F8230010445A
:102D7000704710B50446BAB1107B68B1537BD27A64
:102D80001B0203F4E0631A43236A03EB82031A88ED
:102D90008A4202D193F9020010BD05D8013880B2F1
:102DA00004330028F3D1F7E70020F5E710B52C2114
:102DB000044621F067FD204610BD000030B58BB001
:102DC0000446BDF860500895BDF85C5007959DF825
:102DD000505006959DF84C5005959DF84850049527
:102DE0009DF8445003959DF8405002959DF83C5045
:102DF0000195BDF83850009510F0C4FC064B2360D7
:102E0000159BE361169B2362199B63621A9BA36265
:102E100020460BB030BD00BFE07C02080048704780
:102E2000407D020801207047704770477047704727
:102E3000704770477047704730B4C2684468551097
:102E4000034604EB6200D20748BF62599B6830BC5E
:102E500048BFD35818470346406830B19A681AB93A
:102E6000D86800F0010070470120704710B51021AC
:102E7000044621F007FD204610BD10B54FF49C71AB
:102E8000044621F0FFFC204610BD38B500F1980340
:102E9000994204460D4603D10EF0BAFFFFF794FCA9
:102EA000E034A54205D10EF0B3FFBDE83840FFF78E
:102EB0009BBC38BD70B5036804461B6B154698472C
:102EC0002368294620465B6BBDE870401847000028
:102ED000F8B5194B018F1B888B4206462AD9174B30
:102EE0001B682BB9164B174A17486C2122F052FC6D
:102EF00013F81120154B1B6853F82250144B186817
:102F000001F0C0F92B6807469B6B284698472B6851
:102F100004469B6C3946284698472B6814FB00F4FE
:102F20005B6A394628469847A4B223181BB2A6F814
:102F30004630F8BD0023FAE700690120FC68012053
:102F40003E81020880810208BB81020804690120D9
:102F5000086901202DE9F74F0446264610F0FCFED3
:102F60000025554BE56346F8403B544B2566C4E9C4
:102F700010354FF48072FF2304F16C0AA4F864202A
:102F800084F86630A4F890204FF6FF734C4AE2664E
:102F900004F19808A4F8923084F8943001A95046BE
:102FA000C4E91255C4E91455C4E91655C4E91C55C1
:102FB000C4E91E55C4E92055C4E92255A56604F1AB
:102FC000E007ADF804300CF010FA40460CF044FB7A
:102FD00038460CF041FB3B4BC4E94A343A4B2A4695
:102FE000C4E94C3529463046FFF764FF3046F021EE
:102FF000FEF76CF930464FF4A071FEF769F904F161
:1030000004094FF07F43A3663146484607F012FBA0
:103010002A4629465046FFF74DFF01A95046ADF814
:1030200004500CF0E2F95146484607F003FB4046D5
:1030300087224121FFF73EFF4FF0060B01AA6946A8
:1030400005234046ADF80030ADF804B00BF051FC5C
:103050000823A4F8D03040464FF0FF3604F5947AA8
:10306000FFF736FF41464846C4E93566C4F8C0A0BC
:1030700007F0E0FA29463846D922FFF71BFF032361
:10308000ADF8003004230DEB030269463846ADF875
:1030900004300BF02EFC3846A4F818B1FFF718FFE7
:1030A0004846C4E94766C4F808A1394607F0C2FAA1
:1030B000204603B0BDE8F08F24820208508D02083C
:1030C000248E02080C8202088B2E000830B503689B
:1030D000018185B06D460146D3F884300446284608
:1030E000984795E807003C3484E8070005B030BDF8
:1030F00030B50368418185B06D460146D3F8843010
:1031000004462846984795E807003C3484E80700C1
:1031100005B030BD0022028042808280C2807047AC
:1031200080F83610704770B5036804461B6B15466F
:1031300098472368294620465B6EBDE870401847D3
:1031400000207047806C70477047704703681B6BA6
:1031500018477047704730B4C2684468551003463A
:1031600004EB6200D20748BF62599B6830BC48BF7D
:10317000D35818470346406830B19A681AB9D868DE
:1031800000F0010070470120704710B54C21044643
:1031900021F078FB204610BD10B51021044621F027
:1031A00071FB204610BD000010B5034B03600446C0
:1031B0000DF018F9204610BDF483020810B5064B37
:1031C000036004460DF00EF9204641F2E81121F0AB
:1031D00059FB204610BD00BFF483020808B50EF06D
:1031E00017FEBDE80840FFF70FBB08B5FEF724F94E
:1031F00008BD0000036870B55E6B124B1B68044687
:103200008DB22BB9104B114A6C21114822F0C2FA31
:103210001049828D0988914203D80F4B0B4A6D21CA
:10322000F3E713F812200D4B1B6853F822000368D4
:103230001B6B9847291A3346204609B2BDE87040F7
:10324000184700BFFC6801203E8102088081020807
:10325000BB81020800690120508202080469012034
:1032600000F53470884208B505D10EF0D1FDBDE8F7
:103270000840FFF799BA08BD00224FF0FF31C0E9BE
:1032800000218260704770B504461D46BDF910608C
:10329000FFF710FE2368294620469B6B984723685A
:1032A00031462046DB6BBDE8704018470022C0E97C
:1032B0000122C0E90322C0E90522C0E907224FF438
:1032C00080728284014A0260704700BFE482020873
:1032D0002DE9F04F044697B0A146002510F03CFDC3
:1032E000E24BE56349F8403B26222946484622F056
:1032F0008CFC4846FFF7DAFF04F16C08FF26DC4B34
:10330000236426224FF6FF73294684F86660A5667B
:103310004046ADF8503022F078FC4046FFF7C6FF3B
:10332000D44AE266BDF85020A4F8922014A904F112
:10333000980784F8946040460CF057F838460AF035
:103340006FFDCD4E04F58473184606F1240A0993E7
:10335000FEF7A0F804F58E73C4F80861C4F810A154
:103360001846C4F81451059309F0A4FE04F5B2738D
:1033700018460A93FEF78EF804F5BC73C4F864612E
:10338000C4F86CA11846C4F87051069309F092FE77
:1033900004F5E07318460B93FEF77CF804F5EA7326
:1033A000C4F8C061C4F8C8A11846C4F8CC5107934A
:1033B00009F080FE04F5077318460C93FEF76AF8CF
:1033C00004F50C73C4F81C62C4F824A21846C4F8AF
:1033D0002852089309F06EFE04F51E7318460D93EB
:1033E000FEF758F804F52373294626221846C4F838
:1033F0007862C4F880A2C4F88452039322F005FCDA
:103400000398FFF753FF9D4AC4F88C224FF6FF73D1
:103410004FF07E52A4F8B232C4F8B42204F53473EB
:10342000C4F8B82200221846C4F8BC22C4F8C0224E
:10343000C4F8C422C4F8C822C4F8CC2204F5467BE0
:1034400004930CF009F926222946584622F0DDFBA8
:103450005846FFF72BFF4FF6FF73A4F84433884A12
:10346000C4F840234FF47F03C4F84C33854A864B9D
:10347000C4F818334FF0FF3A04F58053C4E9D6A5D9
:10348000C4F84853A4F85053C4F85453C4F86053D4
:10349000C3E976247D4A4FF46161C3E9782504F5D8
:1034A00072700CF095FF4FF4A0732A4600932946E2
:1034B000F0234846FFF7E7FE261D4FF07F43A36643
:1034C0004946304607F0B6F82A4629464046FFF7F7
:1034D000F1FC14A94046ADF850500BF086FF414670
:1034E000304607F0A7F81E230093F0231A4629461A
:1034F0003846FFF7C8FE099BC4F8C0304FF4F0729D
:1035000029463846C4F814A1A4F818A10AF09EFD73
:103510004FF4F0724FF4F05138460AF0A2FDD4F89F
:10352000D430A02B05D0A023C4F8D43038460AF0FC
:1035300097FC384601210AF09FFD3946304607F0D6
:1035400079F84FF4A079002211460598CDF8009043
:10355000F023FFF798FE4FF470624FF407530025F5
:103560004FF4C0774FF43458C4E952234FF4784AEB
:10357000474B0A9A0599C4F85071C4F85C51C4F8D5
:103580005451C4F87031C4F844213046C4F858810D
:10359000A4F874A107F04EF818232A462946069885
:1035A0000093FFF770FE3A4BC4F8CC310B9B0699A1
:1035B000C4F8AC71C4E96977C4E96C58C4F8B8516F
:1035C000C4F8A03184F89D513046A4F8D0A107F08A
:1035D00031F818232A46194607980093FFF753FE3F
:1035E0004FF0FF220C9BC4F828224FF4FC62C4E980
:1035F0008077C4E983580799C4F80872C4F8145254
:10360000A4F82C22C4F8FC3184F8F951304607F0B4
:1036100011F818232A46089800933021FFF733FE4B
:103620006FF0FF03C4F884324FF6E073A4F88832D9
:103630000D9BC4F85832C4E99777C4E99A580899A1
:10364000C4F86472C4F8705284F85552304606F0DB
:10365000F1FF294603980BF0F5FA2A46294603980C
:10366000CDF80090F023FFF70EFE13E0F48302087C
:10367000508D0208248E0208C8890208B88D0208FD
:10368000DC760208DC8302084C8302086132000801
:103690000000FFFF444BC4F8B432444BC4F8B832C6
:1036A000434BC4F8C832C4F8C0324FF08743414A94
:1036B000C4F8C4320023C4F8BC320399C4F8CC2245
:1036C000304606F0B7FF294604984FF48E72FFF794
:1036D000F1FB012714AA022313A90498ADF8503076
:1036E000ADF84C700BF005F907230498A4F80833E3
:1036F000FFF7EEFB4FF0FF33C4E9C33304F58E53FD
:1037000018330499C4F8F832304606F093FF1E23AC
:103710004FF491720093782165235846FFF7B3FD6B
:10372000254BC4F84833D4F81833A4F84C530EADE5
:103730002846D3F884305946984795E807000BF19E
:103740003C0383E807001D4B1B6804F559752BB932
:103750001B4B1C4A60211C4822F01CF81B4B1B8889
:10376000032B03D81A4B174A6121F4E7194B0321A5
:10377000186800F087FD184A03463221284611F0E8
:103780007FFF164BC4F8605314A958461493ADF844
:1037900054700BF051F83046594606F04BFF204666
:1037A00017B0BDE8F08F00BFCDCC4C3ECDCCCC3DAA
:1037B0000000F0420000664300FC50FFFC6801205E
:1037C0003E8102088E820208BB8102080069012046
:1037D0005082020808690120D9820208DC760208BA
:1037E00070477047704703681B6B1847704730B4C9
:1037F000C26844685510034604EB6200D20748BF14
:1038000062599B6830BC48BFD3581847034640688C
:1038100030B19A681AB9D86800F0010070470120E9
:10382000704710B51021044621F02CF8204610BD39
:1038300010B5034B036004460CF0D4FD204610BDC8
:103840004884020810B5064B036004460CF0CAFD1C
:10385000204641F2D40121F015F8204610BD00BFEA
:103860004884020800F5BC70884208B505D10EF006
:10387000CFFABDE80840FEF797BF08BD2DE9F04F2D
:103880002DED028B04468FB0A246002510F064FA9D
:10389000DD4BE5634AF8403B26222946504622F09C
:1038A000B4F95046FFF702FD04F16C09D74B2364CD
:1038B000FF2626224FF6FF77294684F86660A56624
:1038C0004846ADF8307022F0A0F94846FFF7EEFC0C
:1038D000CF4BE366BDF83030A4F892300CA904F168
:1038E000980884F8946048460BF07FFD40460AF043
:1038F00097FAC84E9FEDC88A04F58473184606F1FE
:10390000240B0493FDF7C6FD04F58E73C4F808611B
:10391000C4F810B11846C4F81451039309F0CAFB57
:1039200004F5B27318460593FDF7B4FDC4F86CB105
:1039300004F5BC7BC4F86461C4F8705158460BF0C0
:103940008BFE04F5E073262229461846029322F0E6
:103950005CF90298FFF7AAFCB04BC4F8C03104F53B
:1039600001764FF07E53C4F8E831C4F8EC312622DA
:103970002946A4F8E67184ED7C8A84ED7D8A84ED85
:103980007E8A84ED7F8A84ED808A304622F03DF97C
:103990003046FFF78BFCA24BC4F82C324FF47F0368
:1039A000C4F838329F4BC4F804329F4AA4F83072EE
:1039B0004FF0FF33C4E9913504F58053C4F8345215
:1039C000A4F83C52C4F84052C4F84C52C3E9312424
:1039D000964A4FF46161C3E9332504F52D700CF06C
:1039E000F7FC4FF4A0732A4600932946F023504673
:1039F000FFF749FC271D4FF07F43A3665146384629
:103A000006F018FE2A4629464846FFF753FA0CA945
:103A10004846ADF830500BF0E8FC4946384606F011
:103A200009FE1E230093F0231A4629464046FFF75D
:103A30002AFC4FF0FF33C4F81431A4F81831049B6A
:103A4000C4F8C0304FF4F072294640460AF0FEFA3E
:103A50004FF4F0724FF4F05140460AF002FBD4F8F4
:103A6000D430A02B05D0A023C4F8D43040460AF0AF
:103A7000F7F9404601210AF0FFFA4146384606F0C0
:103A8000D9FD4FF4A078002211460398CDF80080AC
:103A9000F023FFF7F8FB4FF470624FF40753C4E9CB
:103AA00052234FF4C073C4F850314FF43453C4F868
:103AB00058315F4BC4F870314FF478430025A4F8B7
:103AC0007431059BC4F844310399C4F85C51C4F8BF
:103AD0005451384606F0AEFD29464FF48E725846D2
:103AE000FFF7E8F94FF002090CAA01230BA9584689
:103AF000ADF82C30ADF830900AF0FBFE0523A4F8A9
:103B0000B0315846FFF7E4F94FF0FF33C4E96D33A5
:103B100004F586530433C4F8A0315946384606F0FC
:103B200089FD294602980BF08DF82A46294602980D
:103B3000CDF80080F023FFF7A6FB3E4BC4F8E83138
:103B40003D4BC4F8EC313D4B3D4AC4F8FC31C4F860
:103B5000F4314FF08743C4F8F8310299C4F80022D9
:103B6000384684ED7C8A06F065FD4FF48E72642140
:103B70003046FFF79FF9334BC4F83432D4F804329F
:103B8000A4F8385206AD2846D3F884303146984719
:103B900095E8070006F13C0383E807002A4B1B6801
:103BA00004F514752BB9294B294A6021294821F0C5
:103BB000F1FD294B1B88032B03D8284B244A612194
:103BC000F4E7274B0321186800F05CFB254A034605
:103BD0003221284611F054FD3046C4F84C520AF008
:103BE0000BFE0F4B0C930CA93046ADF834900AF045
:103BF00023FE3846314606F01DFD20460FB0BDECD1
:103C0000028BBDE8F08F00BF48840208508D020887
:103C1000248E0208C889020800000000B88D02083E
:103C2000DC7602084C8302083084020865380008FC
:103C30000000FFFFCDCC4C3ECDCCCC3D0000F0428F
:103C40000000664300FC50FFFC6801203E81020832
:103C50008E820208BB81020800690120508202089E
:103C600008690120D982020870477047704730B454
:103C7000C26844685510034604EB6200D20748BF8F
:103C800062599B6830BC48BFD35818470346406808
:103C900030B19A681AB9D86800F001007047012065
:103CA000704710B51021044620F0ECFD204610BDF1
:103CB00010B54FF4E671044620F0E4FD204610BD37
:103CC0009830884208B505D10EF0A2F8BDE808404A
:103CD000FEF76ABD08BD00002DE9F04F04468BB029
:103CE000A046002510F038F8834BE56348F8403BC8
:103CF00026222946404621F088FF4046FFF7D6FAA3
:103D000004F16C077D4B2364FF2626224FF6FF79D2
:103D1000294684F866603846A566ADF8209021F003
:103D200074FF3846FFF7C2FA754BE366BDF82030E2
:103D3000A4F8923004F1980B08A9384684F89460EE
:103D40000BF053FB04F1E00A58460BF085FC04F538
:103D5000867608A95046ADF820900AF099FA2622F6
:103D60002946304621F051FF3046FFF79FFA654B58
:103D7000C4F834314FF47F03C4F84031624BC4F8C7
:103D80000C314FF0FF33C4E95335604BA4F8389140
:103D9000C4E96F345E4BC4F83C51C4E971354FF44B
:103DA000A0732A46A4F84451C4F84851C4F85451A9
:103DB000294600934046F023FFF765FA04F1040911
:103DC0004FF07F43A3664146484606F033FC2A463F
:103DD00038462946FFF76EF8384608A9ADF8205056
:103DE0000BF003FB3946484606F024FC4FF48E7274
:103DF00029465846FFF75EF8012308AA07A9ADF83F
:103E00001C3058460223ADF820300AF072FD04231E
:103E1000A4F8D0305846FFF75BF84FF0FF33C4E901
:103E2000353304F5DE73C4F8C0305946484606F011
:103E300001FC072308A95046ADF820300BF0D5FA55
:103E4000A023502200932B219B235046FFF71BFAFF
:103E5000294650460AF0D7F95146484606F0EAFB93
:103E6000F0224F213046FFF725F82A4BC4F83C31A9
:103E7000D4F80C31A4F8405102AF3846D3F884305E
:103E80003146984797E8070004F5A47383E80700D4
:103E9000214B1B6804F5AC772BB9204B204A6021DD
:103EA000204821F077FC204B1B88032B03D81F4BA5
:103EB0001B4A6121F4E71E4B0321186800F0E2F968
:103EC0001C4A03463221384611F0DAFB3046C4F86A
:103ED00054710AF091FC0B4B089308A93046ADF8D9
:103EE00024500AF0A9FC4846314606F0A3FB2046C0
:103EF0000BB0BDE8F08F00BF9C840208508D020813
:103F0000248E0208DC7602084C83020884840208AE
:103F1000C13C0008009DFFFFFC6801203E810208B3
:103F20008E820208BB8102080069012050820208CB
:103F300008690120D98202087047000030B5174D8A
:103F40002C68BFF35B8F14F001048FB022D1284698
:103F500020F09AFCF0B13F230993114B0893114BC9
:103F600007930123CDE9053304930423CDE90243EC
:103F700010230D49009341221323CDE90B440B4834
:103F80000A940194FEF71AFF094821F021FC284603
:103F900020F086FC05480FB030BD00BF2C59002032
:103FA000ACB0020854B1020838AC02083059002005
:103FB000393F00087047000030B5164D2C68BFF33C
:103FC0005B8F14F001048FB020D1284620F05CFCF8
:103FD000E0B13F230993104B0893104B104911484F
:103FE0000A940122CDE906430423CDE903320A23D2
:103FF0000093CDE90B44CDE901440594FEF7DEFEC4
:10400000094821F0E5FB284620F04AFC05480FB09E
:1040100030BD00BF5C59002048B1020858B1020809
:10402000C8AF020860590020B53F00087047000083
:1040300030B5174D2C68BFF35B8F14F001048FB0BF
:1040400022D1284620F020FCF0B13F230993114BE8
:104050000893114B114912480A94CDE906430122F5
:104060000423CDE90332142300930E221823CDE953
:104070000B44CDE901440594FEF7A0FE094821F068
:10408000A7FB284620F00CFC05480FB030BD00BF50
:104090008C5900204CB102085CB10208D8AF02086C
:1040A000905900202D4000087047000030B5164D93
:1040B0002C68BFF35B8F14F001048FB020D1284629
:1040C00020F0E2FBE0B13F230993104B0893104B23
:1040D000104911480A940122CDE906430423CDE991
:1040E000033228230093CDE90B44CDE90144059424
:1040F000FEF764FE094821F06BFB284620F0D0FB58
:1041000005480FB030BD00BFBC59002050B10208B7
:1041100060B102089CB00208C0590020A940000804
:1041200000207047002070470EB403B503AB002198
:1041300053F8042B01930EF0B7FD02B05DF804EBC9
:1041400003B070470CB407B504AB53F8042B0193CC
:104150000EF0AAFD03B05DF804EB02B0704700005A
:10416000436C10B5044673B3038F2BB9184B194A2F
:10417000C521194821F00EFBC38E00EB43035B8C75
:104180000BB310F0D4FC238F012B03D8134B144A2C
:10419000CB21EEE7E28E531C9BB2092B194688BF58
:1041A000A3F10A0104EB410140F63F10498C814222
:1041B00009D10A2B04EB420228BF002304EB43037E
:1041C000508C588451842046BDE8104010F0B2BB9A
:1041D000C8840208D18402087C850208C6850208CA
:1041E000D485020810F06DBB10B586B002AC84E82F
:1041F00006001A460AAB05930193099B00932146DA
:10420000089B0DF087F906B010BD000038B518BB4B
:10421000124B13481C681349B4B12268224402604F
:10422000626822440A60A26814440F4B00221A807C
:1042300000F038F8054600F033F80C4B1C600C4BCE
:104240001D600C4B188007E00B4B03600B4B0B60A1
:104250000B4B1C68002CE8D138BD00BFF85900207A
:10426000F0590020EC590020F4590020FC6801208E
:10427000046901200069012088B1020864B10208C4
:10428000C4B10208044B1B6853F82100034B1B68A0
:1042900003EB4000704700BFEC590020F0590020AC
:1042A0000920704700487047FC59002010B5FFF7FF
:1042B000BFFE064C2060FFF7F9FE6060FFF77CFE52
:1042C000A060FFF73BFEE06010BD00BFFC5900207E
:1042D00010B5002404600C6014601C6010BD7047B1
:1042E00010B54FF4AE71044620F0CCFA204610BD54
:1042F00010B50446D0F8580100F013F82046BDE888
:1043000010400DF007BE000010B50446FEF718FA85
:10431000014B2360204610BDB086020800220260D7
:1043200070477047704704387047704710B51021C8
:10433000044620F0A7FA204610BDA0F10400F5E7DE
:1043400000228260024A026018324260C1607047F7
:10435000048702087047000010B5034B0360044651
:10436000FEF767FD204610BD2C87020810B50446F5
:10437000FFF7F2FF20464FF49C7120F083FA2046AD
:1043800010BD000010B50446FEF7E4FD014B2360AC
:10439000204610BD2C870208FEF74CBD704704383C
:1043A0007047704710B51021044620F06BFA204684
:1043B00010BDA0F10400F5E700228260024A02600D
:1043C00018324260C1607047608702087047000081
:1043D000094B70B50446036043F6041541F2A41678
:1043E000635960191B68483D9847B542F8D120468B
:1043F000FEF7DAFE204670BD8C87020810B5044631
:10440000FFF7E6FF204644F2B01120F03BFA2046C9
:1044100010BD10B5044600F582408C2200212030EA
:1044200004F5804421F0F1FB0023C4F81C3110BDD9
:10443000F8B50546FEF74CFF114B2B6005F5805390
:10444000002205F58F5405F56556C3F8E8210C34B4
:104450000C3604F534772046483408F02BFEBC4275
:10446000F9D1A642F5D105F540520023C2F8A03C8F
:10447000A2F8A43C05F580422846C2F8AC31F8BD4C
:104480008C87020870B51D460B680C461B6B00211B
:10449000204616469847236800215B6B20469847C4
:1044A0002368F0219B6B2046984723684FF4A07146
:1044B000DB6B204698474FF4C073B5F59C7F636370
:1044C0004FF00003A8BFA5F5A8752364A3634FF4BC
:1044D000345376016D01E363049BE6622563A362B6
:1044E00070BDF0B500299DF818704BDA0E31092A1D
:1044F00047D80A2606FB01F54419144443F67C3CD0
:1045000014F80CC0BCF1000F3BD044F2201C14F88E
:104510000C40B4BB4FF434744C434FF0480C0CFBCC
:104520000244044404F58F540C34246BB4F5F35F57
:1045300027DA7FB1059C154406FB034405F6526556
:1045400004F6526400EB850500EB84046D68636833
:104550009D4216D100F58045D5F81C3100EB83044F
:1045600004F540540133C4F8BC1CC4F8EC2EC5F863
:104570001C310A2303FB0100024444F220130121F1
:10458000D154F0BD0D29C8BF0E39B0E74FF43473D4
:104590002DE9F04F4B431646482202FB06330344F5
:1045A00003F58F530C3385B01B6BB3F5F35F0446F3
:1045B0000D4680F2818004F5804AFFF72AFFDAF881
:1045C0001C3104EB830202F5405244F22011C2F880
:1045D000BC5CC2F8EC6E0A2202FB0545AA19012652
:1045E000334404F57258565408F13808CAF81C319F
:1045F0000027DAF81C319F4203DB384605B0BDE8DE
:10460000F08F58F804BFD8F8305200956B1ECDE9F2
:1046100001635946029A5B462046FFF762FF6B1C16
:1046200003936A1C5B465946CDE900562046FFF7C6
:1046300058FF1BF0010FCDE9005607F101070BF100
:10464000FF310BF101095B462A461CD0204602913E
:10465000FFF747FF02995B466A1C2046CDE90056EA
:10466000FFF73FFF5B462A46CDE900564946204604
:10467000FFF737FFCDE90056039A5B4649462046CF
:10468000FFF72FFFB5E720460391FFF72AFFDDE98B
:1046900002215B462046CDE90056FFF722FF5B462C
:1046A0002A46CDE9005649462046FFF71AFFCDE9D4
:1046B0000056029A5B46E1E700279EE72DE9F04F9E
:1046C000044604F5905187B0002342F210704FF079
:1046D000FF351C314FF4347606FB03F28A58002A6A
:1046E000B8BF1F32B0EB621FC8BF1D464FEA62174A
:1046F00003F10103C8BF38460E2BEDD12046FFF76A
:1047000088FE0A2303FB054315F0010F03F56D53E3
:104710000CBF0A2709273B33002204F580464FF0DF
:10472000010C13F8011F71B1D6F81C1183F8A4C550
:1047300004EB810000F540500131C0F8BC5CC0F8CA
:10474000EC2EC6F81C110132BA42EAD104F57257B8
:104750004FF0000A04F58043383705935646059B11
:10476000D3F81C31534502DC07B0BDE8F08F57F891
:1047700004BFD7F830526B1E0393039A5B46594629
:104780002046CDE90056FFF7ACFE6B1C049359465A
:10479000CDE900565B466A1C2046FFF7A2FE1BF0DF
:1047A00001090AF1010A0BF1FF310BF1010820D0D8
:1047B0005B462A462046CDE900560391FFF791FE5D
:1047C00003995B466A1C2046CDE90056FFF789FE37
:1047D0005B462A46CDE9005641462046FFF781FE5A
:1047E000CDE90056049A5B4641462046FFF779FE24
:1047F000B5E75B462A462046CDE900590491FFF70C
:1048000070FEDDE903215B462046CDE90059FFF744
:1048100068FE5B462A46CDE9005941462046FFF72F
:1048200060FECDE90059039A5B46DDE7CB6A0A6B6F
:10483000002BB8BF1F33002AB8BF1F325211501CC3
:10484000B0F59C7FA8BF6FF4A7704FEA6313A8BFB1
:1048500010185B014001CB62086370472DE9F04FEF
:10486000544D89B00446FEF770FC0023524A534869
:10487000322121F053F951493222284610F09FFB92
:10488000C4F8605304F546700EF038FBA4EB8408BE
:1048900004F51E7304F56D5504F58F56A8F53448DC
:1048A000049304F507733B350C36A8F1A0080027E4
:1048B000059307F001031821002B01FB07F303F117
:1048C0000C0314BF0C220022029302F10C0A0CBF4D
:1048D0000A23092301FB03A30393B346A946FCF76C
:1048E000BFFF0323B0FBF3F303EB4303C01A48F805
:1048F000290000284FD104F5E07300935246029B33
:1049000059462046FFF7BEFDDBF83030B3F5D07FC7
:1049100047DA5946201D05F08DFE012309F8013FB5
:10492000039B0AF1180A9A450BF1480BD7D10137BE
:104930000E2F05F10A0506F53476BAD104F5405577
:1049400005F6984300221A6005F69C431C4A1A603B
:104950001C4BC4F8BC321C4BC4F8B432FCF780FFCB
:104960000323B0FBF3F303EB4303C01AC5F8B80C01
:10497000C8B904F5E0731548C4F844314F238DF8E5
:104980001F3000220A230DF11F01006803F090FE82
:1049900009B0BDE8F08FDDE90432012808BF1346F5
:1049A000ABE70023BAE701280CBF04F5077304F551
:1049B0001E73E0E7425A002080870208105A002048
:1049C000000080BF00008743CDCCCC3DB456002012
:1049D0002DE9F04F00F540562DED0A8B96F8A53CD9
:1049E00087B00446002B00F014839FED979ADFED0B
:1049F000979AB3EE04BA06F6A84393ED00AAB5EE73
:104A0000C0AA06F54B63F1EE10FAD3ED007A11DD82
:104A10009FED8F7A77EE677AB2EE087A77EEC77AF3
:104A200087EE8A8AB4EE4B8AF1EE10FAC8BFB0EE78
:104A30004B8A03E000F1ED80B0EE4B8A04F56D5730
:104A40003B37BB46A1464FF0000A1AF0010F09F5AB
:104A5000905505F118050CBF4FF00A084FF00908F2
:104A60004823DFED7CAACDF800B003FB0858009A7C
:104A700012F8013F0092002B5ED02B68002BB8BFCC
:104A80001F335B1107EE903A6B6806F54B61002B04
:104A9000D1ED008AB8BF1F33F8EEE77A5B1178EEEC
:104AA000E78A07EE903A06F54B61F8EEE77A91ED6A
:104AB00001CA3CEE67CA6CEE0CBAE8EEA8BAB0EEDA
:104AC0006B0A1FF009FFB4EEC90AF1EE10FA40F2CA
:104AD000B18006F6A843D3ED017AB0EE007A27EE56
:104AE000A70AEAEE078AAAEE0A0A77EEA77A7BEE11
:104AF000EABAE7EE8C8AF1EE007A20EE270A20EE81
:104B00006B0AA8EEA80AB5EEC00AF1EE10FA13D4AB
:104B10001FF0E2FEF1EE687A77EEC07AF5EEC07A29
:104B2000F1EE10FA7CDBB6EE000A20EE270AB5EEB5
:104B3000C00AF1EE10FA7FDA4835454597D10AF1FF
:104B4000010ABAF10E0F09F534790BF10A0B7FF463
:104B50007CAFB5EEC08A06F6A843D3ED017AF1EE3C
:104B600010FA06F54B63D3ED008A48BF9FED378AF4
:104B7000D3ED01AAEAEE088A04F5905808F1180866
:104B8000E7EE88AA42464FF00009C3ED008A3BEEEB
:104B900048BA06F6B443C3ED00AA3B4619F0010F2C
:104BA0000CBF0A2109210091154619464FF0000B50
:104BB00011F801AFBAF1000F54D100980BF1010BBD
:104BC000834505F14805F3D109F10109B9F10E0F4B
:104BD00003F10A0302F53472E0D1DFED1F7AF4EE3F
:104BE000E78AF1EE10FA07D9DFED1C7AF4EEE78AD6
:104BF000F1EE10FAC0F2EE8106F6A843B1EE4AAA31
:104C000083ED00AAB5EEC0BAF1EE10FA3FF7F3AEAD
:104C1000E8E1B2EE087A77EEC77AF1EE677AFFE65E
:104C200030EE680AB5EEC00AF1EE10FA84DBF6EE5B
:104C3000007A7AE7B0EE690AB4EEC08AF1EE10FAB3
:104C400058BFB0EE408A77E73400C0410000000052
:104C500000007043B2FF0F4469004041F9FF634315
:104C600000401C46286801910028B8BF1F30401141
:104C700007EE900A68680028B8BF1F30CDE90232FD
:104C8000431100EE103AB8EEC00AF8EEE77A30EEC3
:104C90006A0A77EEE87A20EE000AA7EEA70A1FF06C
:104CA0001BFEB4EEC90AF1EE10FADDE90113039A16
:104CB00083D84FF0FF351FED168A4FF0000BA94641
:104CC0001BF0010F0CBF0A2309230093424639460B
:104CD000002311F8010F50BB106801930028B8BFE2
:104CE0001F30401107EE900A50680028B8BF1F30EF
:104CF000431100EE103AB8EEC00AF8EEE77A30EE53
:104D00006A0A77EEE87A20EE000ACDE90212A7EEF1
:104D1000A70A1FF0E1FDDDE90131B4EEC08AF1EE32
:104D200010FA039AC2BFB0EE408A1D46D9460098D9
:104D30000133984202F14802CBD10BF1010BBBF1D8
:104D40000E0F07F10A0708F53478B9D1B9F1FF3F22
:104D500000F0B680681C00F0B3800A2303FB09F35F
:104D6000E2182A4443F67C3101202B44505403F6C8
:104D70005263D6F8B82C032104EB8303B2FBF1F1A4
:104D800001EB4101521A5A60002A40F01C8104F5DF
:104D9000E0734FF43471482201FB09F102FB051165
:104DA000601841F2142201F58F5183500C31231DFC
:104DB00018462144009305F03DFC2A46494620460A
:104DC000FFF7E4FB022805467ADD04F5A55704F554
:104DD0006D581C3708F13C0843463A464FF0000B2B
:104DE000A2F53471994699F8A40578B199F80000B4
:104DF00060B100980191CDE9022305F05CFC4FF011
:104E0000000389F80030DDE902230199483191421D
:104E100009F10109E7D101F534720BF5347B42F257
:104E200060718B4503F10A03DAD12046FFF746FC97
:104E30004FF0000B42F26072A7F53471C14699F849
:104E4000A43573B999F8000058B10098CDE9011361
:104E500005F031FC029B019989F80030013542F2DE
:104E6000607248318F4209F10109E8D10BF5347BBA
:104E7000934507F5347708F10A08DDD104F580423F
:104E80003221D2F8AC31CB482B44C2F8AC31CA4AFB
:104E90001360CA4A20F042FEC649C948322210F0C7
:104EA0008EF804F5467009F0A7FCC64845238DF836
:104EB000173000680A2300220DF1170103F0F8FBF8
:104EC00006F6B443D3ED007A9FEDBF7AF4EEC77ACD
:104ED000F1EE10FA03D9BAF1000F00F08D80002333
:104EE00086F8A53C4FF470614FF40753C4E95213A0
:104EF000FCF7B6FC0323B0FBF3F303EB4303C01A48
:104F0000C6F8B80C002870D104F5E073C4F8443139
:104F1000AE4D286803F02DFC0023C0B28DF8173089
:104F200000287DD104F5805BD6F8943CDBF8E8518D
:104F300096F8A42CEB1A082B00F2F5802AB901236D
:104F400086F8A43CA24BC4F8B432231D0093002D74
:104F500000F0048115F0070540F00081A4EB8409FE
:104F600004F5A55704F56D58A9F534491C3708F127
:104F70003C08A9F1A40905F12803A7F53476C24637
:104F8000019331462046FFF751FC326BB2F5D07FDA
:104F900080F2D0809AF80020002A40F0CE80FCF702
:104FA0005FFC0323B0FBF3F202EB4202801A49F8E4
:104FB0002A00002800F0DF8001280CBF04F50772EA
:104FC00004F51E72D9E0012A0CBF04F5077304F53D
:104FD0001E73DEE6DFED7C7AF4EEE7AAF1EE10FA5E
:104FE0003FF610AE4FF0000A6AE701280CBF04F547
:104FF000077304F51E7389E706F54B6393ED007A9A
:10500000FEEEED7ABEEEED7AC4ED537A84ED527A7F
:105010007EE74FF470624FF40753C0E9522377E7FD
:105020004FF0FF33002228680DF1170103F071FBE8
:105030009DF81720D6F8A03C4C2A1CD1C3F58672E7
:105040000132B42A08DD0133C6F8A03C04F58053D0
:10505000D3F8E831C6F8943CD6F8A03C2868C3F5EC
:10506000877307EE903AF8EEE77AC4EDAF7A03F073
:1050700080FBC0B254E7522A07D1C3F587720132D0
:10508000B2F5B47FE8DA013BDEE7582AE4D196F8BE
:10509000A52C002AE0D104F58052D2F8E821002A9C
:1050A000DAD007EE903A9FED4B7AF8EEE77A0122DC
:1050B000C7EE878A86F8A52CDFED477A68EEA78AC7
:1050C000B0EE680A1FF026FCB0EE408AB0EE680A27
:1050D0001FF064FC06F6984393ED017AD3ED007A55
:1050E00060EE078AE8EE278A28EE078AA0EE678A34
:1050F00028EE080AA8EEA80A1FF0EEFBC8EE807A98
:1051000006F6A843354AC3ED007AC8EE007A06F6E3
:10511000AC43C3ED007A06F54B631A6006F6B44360
:105120002F4A1A6098E7002A3FF40FAF2D4B86F8FC
:10513000A40C08E7B2F5F35F2ADA4836B7420AF161
:10514000010A7FF41EAF05F5347542F260739D428B
:1051500007F5347708F10A087FF40DAFDBF8E83182
:1051600000980133CBF8E8310DF0C8FE07B0BDEC74
:105170000A8BBDE8F08F04F5E072019B0098711B6B
:10518000CA50314605F056FA01228AF80020D4E7C9
:105190009AF80020002AD0D022682046D26A904790
:1051A0000098314605F087FA4FF000038AF8003086
:1051B000C3E700BF105A00200C5A00208087020865
:1051C000425A0020B456002097FF3FC1B856002035
:1051D000CDCC4C3E00003443DB0F49400000F04290
:1051E00000008743CDCCCC3D7047043870477047F2
:1051F00010B5102104461FF045FB204610BDA0F15C
:105200000400F5E700228260024A02601832426020
:10521000C1607047C88702087047000010B5034B93
:1052200003600446FEF704FB204610BDF087020829
:1052300010B50446FFF7F2FF204641F2D8011FF0F7
:1052400021FB204610BD000010B50446FEF716FBFA
:10525000044B236004F580530022C3F8D420204679
:1052600010BD00BFF0870208FEF7BCBA70470438D3
:105270007047704710B5102104461FF003FB20460D
:1052800010BDA0F10400F5E700228260024A02602E
:1052900018324260C16070472C88020870470000D5
:1052A00010B5034B03600446FEF7DEFC204610BD3C
:1052B0005488020810B50446FFF7F2FF20464FF469
:1052C000E6711FF0DFFA204610BD000010B504465D
:1052D000FEF702FD014B2360204610BD54880208F2
:1052E00073B50446FEF7C1FC1148124E0068124D1A
:1052F0004C238DF807300DF107010A23002203F03B
:10530000D7F90E4B0E4A1B683221304620F006FCBE
:105310003222314628460FF052FE04F58674A56409
:10532000204609F069FA20460DF0E8FD02B070BD94
:10533000B4560020A65A0020D85A00200C5A00204B
:1053400080870208F02070474FF4A0707047292032
:10535000FCF79EBD2820FCF79BBD08B5FCF76CFD53
:10536000CA20FCF795FDC320FCF776FD0820FCF76A
:1053700073FD5020FCF770FDCF20FCF789FD002065
:10538000FCF76AFDC120FCF767FD3020FCF764FDE7
:10539000ED20FCF77DFD6420FCF75EFD0320FCF7AB
:1053A0005BFD1220FCF758FD8120FCF755FDE8203D
:1053B000FCF76EFD8520FCF74FFD0020FCF74CFD4F
:1053C0007820FCF749FDCB20FCF762FD3920FCF783
:1053D00043FD2C20FCF740FD0020FCF73DFD342070
:1053E000FCF73AFD0220FCF737FDF720FCF750FDF3
:1053F0002020FCF731FDEA20FCF74AFD0020FCF7F5
:105400002BFD0020FCF728FDB120FCF741FD00201A
:10541000FCF722FD1B20FCF71FFDB620FCF738FD32
:105420000A20FCF719FDA220FCF716FDC020FCF7AE
:105430002FFD1020FCF710FDC120FCF729FD1020E6
:10544000FCF70AFDC520FCF723FD4520FCF704FD11
:105450001520FCF701FDC720FCF71AFD9020FCF792
:10546000FBFC3620FCF714FDC820FCF7F5FCF2200D
:10547000FCF70EFD0020FCF7EFFCB020FCF708FD68
:10548000C220FCF7E9FCB620FCF702FD0A20FCF77D
:10549000E3FCA720FCF7E0FC2720FCF7DDFC042060
:1054A000FCF7DAFC2A20FCF7F3FC0020FCF7D4FC24
:1054B0000020FCF7D1FC0020FCF7CEFCEF20FCF72D
:1054C000CBFC2B20FCF7E4FC0020FCF7C5FC002003
:1054D000FCF7C2FC0120FCF7BFFC3F20FCF7BCFC42
:1054E000F620FCF7D5FC0120FCF7B6FC0020FCF709
:1054F000B3FC0620FCF7B0FC2C20FCF7C9FCC8204C
:10550000FCF714FD2620FCF7C3FC0120FCF7A4FCEB
:10551000E020FCF7BDFC0F20FCF79EFC2920FCF7E7
:105520009BFC2420FCF798FC0C20FCF795FC0E203B
:10553000FCF792FC0920FCF78FFC4E20FCF78CFC5A
:105540007820FCF789FC3C20FCF786FC0920FCF75E
:1055500083FC1320FCF780FC0520FCF77DFC172062
:10556000FCF77AFC1120FCF777FC0020FCF774FCB8
:10557000E120FCF78DFC0020FCF76EFC1620FCF708
:105580006BFC1B20FCF768FC0420FCF765FC112079
:10559000FCF762FC0720FCF75FFC3120FCF75CFCA9
:1055A0003320FCF759FC4220FCF756FC0520FCF7A1
:1055B00053FC0C20FCF750FC0A20FCF74DFC282083
:1055C000FCF74AFC2F20FCF747FC0F20FCF744FCBB
:1055D0001120FCF75DFCC820FCF7A8FC2920FCF793
:1055E00057FCBDE808402C20FCF752BC08B5FCF77E
:1055F00023FC0321D320FCF767FC80B208BD10B563
:10560000C4B2022203212046FCF7CCFB0A20FCF79F
:1056100011FC204600220321FCF7C4FBBDE810402A
:105620000220FCF707BC38B50446E4B2FCF7B8FB2F
:1056300000212046FCF7CEFB012105462046FCF761
:10564000C9FB40EA052080B238BD10B5C4B2402184
:105650002046FCF7BFFB030607D54C212046FCF78C
:10566000B9FB003818BF012010BD01224B21204694
:10567000FCF798FB204600224B21FCF793FB00200F
:10568000F2E773B50423C4B20E461546D7210DEBDD
:1056900003022046FCF7B8FB019B1BBA1A0DC3F3AB
:1056A0000B23328020462B8001224B21FCF77AFB12
:1056B00000224B212046FCF775FB02B070BD0000B4
:1056C00010B50A4A1378984204460DD051788842A2
:1056D0000AD00BB141B90123D454FCF761FB204639
:1056E000BDE81040FFF78BBF10BD00BF3C5B002042
:1056F00010B5C4B209212046FCF76CFB40F0010252
:10570000D2B220460921BDE81040FCF74BBB10B5D2
:10571000C4B209212046FCF75DFB092100F0FE021E
:105720002046BDE81040FCF73DBB38B5C4B20D467D
:1057300020460A21FCF74EFB40EA0502D2B2204681
:105740000A21BDE83840FCF72DBB10B50446FCF734
:1057500028FB20461F21FFF7E8FF2046BDE8104048
:10576000FFF7C6BF38B5C4B20D4620460A21FCF784
:1057700031FB20EA0502D2B220460A21BDE83840BA
:10578000FCF710BB10B50446FFF7C1FF20461F21F0
:10579000BDE81040FFF7E6BF10B5C0B20C460B21C4
:1057A000FCF718FB204010BD1F21FFF7F5BF0A468C
:1057B000C0B20B21FCF7F6BA1F21FFF7F8BF38B5CE
:1057C000C4B20D4620461721FCF704FB20EA05026F
:1057D000D2B220461721BDE83840FCF7E3BA70B5D5
:1057E000C4B2064604212046FCF7F4FA042100F076
:1057F000FB0205462046FCF7D5FA3046F021FFF7BC
:10580000DEFF05F0F80220460421FCF7CBFA49221E
:1058100020212046FCF7C6FA0220FCF70BFB2046AD
:1058200001222121FCF7BEFA20469A224121FCF7F1
:10583000B9FA204601224A21FCF7B4FA2046012297
:105840004B21FCF7AFFA204600224B21FCF7AAFAC5
:10585000204601225621FCF7A5FA204601225821B4
:10586000FCF7A0FA204601224021FCF79BFA2046D3
:10587000FF220B21FCF796FABDE870400220FCF7EE
:10588000D9BA0000054BD3F8882042F47002C3F85F
:1058900088204FF000629A60704700BF00ED00E082
:1058A00008B50B4B1A6842F400721A601A6842F489
:1058B00080621A601A6842F480721A60032000F055
:1058C0002FF80020FCF7B0FDFCF73EFB002008BDE0
:1058D000003C0240034A044B11681B780B441360E0
:1058E000704700BF405B002078000020014B186823
:1058F000704700BF405B002038B50446FFF7F6FF55
:10590000631C1CBF054B1B78054618BFE418FFF746
:10591000EDFF431BA342FAD338BD00BF780000203F
:105920000749CA6822F4E0620302120403F4E06348
:10593000120C134343F0BF6343F40033CB60704752
:1059400000ED00E0164B30B5DC68C4F30224C4F16E
:105950000703251D042B28BF0423062D4FF0FF3518
:105960008CBF033C002405FA03F321EA0303A5409E
:1059700022EA0502A340002843EA0203ACBF00F17B
:105980006040084A4FEA0313B8BF00F00F00DBB2D3
:10599000AABF00F56140135480F8003330BD00BF4A
:1059A00000ED00E014ED00E0002807DB044A4109A7
:1059B000012300F01F00834042F82130704700BFF0
:1059C00000E100E010B5044650B1437903F0FF0256
:1059D00013B90271FCF7D8FA01236371002010BDDE
:1059E0000120FCE710B5044630B390F8393003F0DD
:1059F000FF021BB980F83820FCF7DEFA22686168E4
:105A0000022384F83930136823F440330B431360C6
:105A1000536BA16823F007030B435363136CE168D6
:105A200023F47F5323F03F030B431364002001232F
:105A3000E06384F8393010BD0120FCE770477047FF
:105A4000036870B55E681D68F207044614D5E90561
:105A500012D51A6822F480721A60C26B42F00102F9
:105A6000C26301229A60042380F83930002380F851
:105A70003830436903B19847B20616D5AB0414D544
:105A800023681A6822F400521A6020229A60E36B9D
:105A900043F00203E363042384F83930002384F8DD
:105AA000383063690BB120469847300716D5290571
:105AB00014D523681A6822F400621A6008229A60DA
:105AC000E36B43F00403E363042384F839300023D9
:105AD00084F8383063690BB12046984772070BD5BC
